{
	"contracts/enums.sol": {
		"MyContract": {
			"abi": [
				{
					"constant": true,
					"inputs": [],
					"name": "choice",
					"outputs": [
						{
							"internalType": "enum MyContract.ActionChoices",
							"name": "",
							"type": "uint8"
						}
					],
					"payable": false,
					"stateMutability": "view",
					"type": "function"
				},
				{
					"constant": false,
					"inputs": [],
					"name": "stateCh1",
					"outputs": [],
					"payable": false,
					"stateMutability": "nonpayable",
					"type": "function"
				},
				{
					"constant": false,
					"inputs": [],
					"name": "stateCh2",
					"outputs": [],
					"payable": false,
					"stateMutability": "nonpayable",
					"type": "function"
				},
				{
					"constant": false,
					"inputs": [],
					"name": "stateCh3",
					"outputs": [],
					"payable": false,
					"stateMutability": "nonpayable",
					"type": "function"
				},
				{
					"constant": false,
					"inputs": [],
					"name": "stateCh4",
					"outputs": [],
					"payable": false,
					"stateMutability": "nonpayable",
					"type": "function"
				}
			],
			"devdoc": {
				"methods": {}
			},
			"evm": {
				"assembly": "    /* \"contracts/enums.sol\":27:420  contract MyContract{\r... */\n  mstore(0x40, 0x80)\n  callvalue\n    /* \"--CODEGEN--\":8:17   */\n  dup1\n    /* \"--CODEGEN--\":5:7   */\n  iszero\n  tag_1\n  jumpi\n    /* \"--CODEGEN--\":30:31   */\n  0x00\n    /* \"--CODEGEN--\":27:28   */\n  dup1\n    /* \"--CODEGEN--\":20:32   */\n  revert\n    /* \"--CODEGEN--\":5:7   */\ntag_1:\n    /* \"contracts/enums.sol\":27:420  contract MyContract{\r... */\n  pop\n  dataSize(sub_0)\n  dup1\n  dataOffset(sub_0)\n  0x00\n  codecopy\n  0x00\n  return\nstop\n\nsub_0: assembly {\n        /* \"contracts/enums.sol\":27:420  contract MyContract{\r... */\n      mstore(0x40, 0x80)\n      callvalue\n        /* \"--CODEGEN--\":8:17   */\n      dup1\n        /* \"--CODEGEN--\":5:7   */\n      iszero\n      tag_1\n      jumpi\n        /* \"--CODEGEN--\":30:31   */\n      0x00\n        /* \"--CODEGEN--\":27:28   */\n      dup1\n        /* \"--CODEGEN--\":20:32   */\n      revert\n        /* \"--CODEGEN--\":5:7   */\n    tag_1:\n        /* \"contracts/enums.sol\":27:420  contract MyContract{\r... */\n      pop\n      jumpi(tag_2, lt(calldatasize, 0x04))\n      shr(0xe0, calldataload(0x00))\n      dup1\n      0x3ce2e762\n      eq\n      tag_3\n      jumpi\n      dup1\n      0x98f42fe3\n      eq\n      tag_4\n      jumpi\n      dup1\n      0xa6e0c059\n      eq\n      tag_5\n      jumpi\n      dup1\n      0xcba7c7e2\n      eq\n      tag_6\n      jumpi\n      dup1\n      0xdf054625\n      eq\n      tag_7\n      jumpi\n    tag_2:\n      0x00\n      dup1\n      revert\n        /* \"contracts/enums.sol\":203:272  function stateCh2() public{\r... */\n    tag_3:\n      tag_8\n      tag_9\n      jump\t// in\n    tag_8:\n      stop\n        /* \"contracts/enums.sol\":97:124  ActionChoices public choice */\n    tag_4:\n      tag_10\n      tag_11\n      jump\t// in\n    tag_10:\n      mload(0x40)\n      dup1\n      dup3\n      0x03\n      dup2\n      gt\n      iszero\n      tag_12\n      jumpi\n      invalid\n    tag_12:\n      0xff\n      and\n      dup2\n      mstore\n      0x20\n      add\n      swap2\n      pop\n      pop\n      mload(0x40)\n      dup1\n      swap2\n      sub\n      swap1\n      return\n        /* \"contracts/enums.sol\":276:343  function stateCh3() public{\r... */\n    tag_5:\n      tag_13\n      tag_14\n      jump\t// in\n    tag_13:\n      stop\n        /* \"contracts/enums.sol\":129:199  function stateCh1() public{\r... */\n    tag_6:\n      tag_15\n      tag_16\n      jump\t// in\n    tag_15:\n      stop\n        /* \"contracts/enums.sol\":347:415  function stateCh4() public{\r... */\n    tag_7:\n      tag_17\n      tag_18\n      jump\t// in\n    tag_17:\n      stop\n        /* \"contracts/enums.sol\":203:272  function stateCh2() public{\r... */\n    tag_9:\n        /* \"contracts/enums.sol\":247:266  ActionChoices.Right */\n      0x01\n        /* \"contracts/enums.sol\":238:244  choice */\n      0x00\n      dup1\n        /* \"contracts/enums.sol\":238:266  choice = ActionChoices.Right */\n      0x0100\n      exp\n      dup2\n      sload\n      dup2\n      0xff\n      mul\n      not\n      and\n      swap1\n      dup4\n      0x03\n      dup2\n      gt\n      iszero\n      tag_20\n      jumpi\n      invalid\n    tag_20:\n      mul\n      or\n      swap1\n      sstore\n      pop\n        /* \"contracts/enums.sol\":203:272  function stateCh2() public{\r... */\n      jump\t// out\n        /* \"contracts/enums.sol\":97:124  ActionChoices public choice */\n    tag_11:\n      0x00\n      dup1\n      swap1\n      sload\n      swap1\n      0x0100\n      exp\n      swap1\n      div\n      0xff\n      and\n      dup2\n      jump\t// out\n        /* \"contracts/enums.sol\":276:343  function stateCh3() public{\r... */\n    tag_14:\n        /* \"contracts/enums.sol\":320:337  ActionChoices.Top */\n      0x02\n        /* \"contracts/enums.sol\":311:317  choice */\n      0x00\n      dup1\n        /* \"contracts/enums.sol\":311:337  choice = ActionChoices.Top */\n      0x0100\n      exp\n      dup2\n      sload\n      dup2\n      0xff\n      mul\n      not\n      and\n      swap1\n      dup4\n      0x03\n      dup2\n      gt\n      iszero\n      tag_22\n      jumpi\n      invalid\n    tag_22:\n      mul\n      or\n      swap1\n      sstore\n      pop\n        /* \"contracts/enums.sol\":276:343  function stateCh3() public{\r... */\n      jump\t// out\n        /* \"contracts/enums.sol\":129:199  function stateCh1() public{\r... */\n    tag_16:\n        /* \"contracts/enums.sol\":173:193  ActionChoices.Bottom */\n      0x03\n        /* \"contracts/enums.sol\":164:170  choice */\n      0x00\n      dup1\n        /* \"contracts/enums.sol\":164:193  choice = ActionChoices.Bottom */\n      0x0100\n      exp\n      dup2\n      sload\n      dup2\n      0xff\n      mul\n      not\n      and\n      swap1\n      dup4\n      0x03\n      dup2\n      gt\n      iszero\n      tag_24\n      jumpi\n      invalid\n    tag_24:\n      mul\n      or\n      swap1\n      sstore\n      pop\n        /* \"contracts/enums.sol\":129:199  function stateCh1() public{\r... */\n      jump\t// out\n        /* \"contracts/enums.sol\":347:415  function stateCh4() public{\r... */\n    tag_18:\n        /* \"contracts/enums.sol\":391:409  ActionChoices.Left */\n      0x00\n        /* \"contracts/enums.sol\":382:388  choice */\n      dup1\n      0x00\n        /* \"contracts/enums.sol\":382:409  choice = ActionChoices.Left */\n      0x0100\n      exp\n      dup2\n      sload\n      dup2\n      0xff\n      mul\n      not\n      and\n      swap1\n      dup4\n      0x03\n      dup2\n      gt\n      iszero\n      tag_26\n      jumpi\n      invalid\n    tag_26:\n      mul\n      or\n      swap1\n      sstore\n      pop\n        /* \"contracts/enums.sol\":347:415  function stateCh4() public{\r... */\n      jump\t// out\n\n    auxdata: 0xa265627a7a72315820e6947f74e9c50c8c8cbbcb7fffda594cd6585d972e4b4dda336d9da3d6c3cc6764736f6c63430005110032\n}\n",
				"bytecode": {
					"linkReferences": {},
					"object": "608060405234801561001057600080fd5b5061018b806100206000396000f3fe608060405234801561001057600080fd5b50600436106100575760003560e01c80633ce2e7621461005c57806398f42fe314610066578063a6e0c05914610092578063cba7c7e21461009c578063df054625146100a6575b600080fd5b6100646100b0565b005b61006e6100d5565b6040518082600381111561007e57fe5b60ff16815260200191505060405180910390f35b61009a6100e7565b005b6100a461010c565b005b6100ae610131565b005b60016000806101000a81548160ff021916908360038111156100ce57fe5b0217905550565b6000809054906101000a900460ff1681565b60026000806101000a81548160ff0219169083600381111561010557fe5b0217905550565b60036000806101000a81548160ff0219169083600381111561012a57fe5b0217905550565b60008060006101000a81548160ff0219169083600381111561014f57fe5b021790555056fea265627a7a72315820e6947f74e9c50c8c8cbbcb7fffda594cd6585d972e4b4dda336d9da3d6c3cc6764736f6c63430005110032",
					"opcodes": "PUSH1 0x80 PUSH1 0x40 MSTORE CALLVALUE DUP1 ISZERO PUSH2 0x10 JUMPI PUSH1 0x0 DUP1 REVERT JUMPDEST POP PUSH2 0x18B DUP1 PUSH2 0x20 PUSH1 0x0 CODECOPY PUSH1 0x0 RETURN INVALID PUSH1 0x80 PUSH1 0x40 MSTORE CALLVALUE DUP1 ISZERO PUSH2 0x10 JUMPI PUSH1 0x0 DUP1 REVERT JUMPDEST POP PUSH1 0x4 CALLDATASIZE LT PUSH2 0x57 JUMPI PUSH1 0x0 CALLDATALOAD PUSH1 0xE0 SHR DUP1 PUSH4 0x3CE2E762 EQ PUSH2 0x5C JUMPI DUP1 PUSH4 0x98F42FE3 EQ PUSH2 0x66 JUMPI DUP1 PUSH4 0xA6E0C059 EQ PUSH2 0x92 JUMPI DUP1 PUSH4 0xCBA7C7E2 EQ PUSH2 0x9C JUMPI DUP1 PUSH4 0xDF054625 EQ PUSH2 0xA6 JUMPI JUMPDEST PUSH1 0x0 DUP1 REVERT JUMPDEST PUSH2 0x64 PUSH2 0xB0 JUMP JUMPDEST STOP JUMPDEST PUSH2 0x6E PUSH2 0xD5 JUMP JUMPDEST PUSH1 0x40 MLOAD DUP1 DUP3 PUSH1 0x3 DUP2 GT ISZERO PUSH2 0x7E JUMPI INVALID JUMPDEST PUSH1 0xFF AND DUP2 MSTORE PUSH1 0x20 ADD SWAP2 POP POP PUSH1 0x40 MLOAD DUP1 SWAP2 SUB SWAP1 RETURN JUMPDEST PUSH2 0x9A PUSH2 0xE7 JUMP JUMPDEST STOP JUMPDEST PUSH2 0xA4 PUSH2 0x10C JUMP JUMPDEST STOP JUMPDEST PUSH2 0xAE PUSH2 0x131 JUMP JUMPDEST STOP JUMPDEST PUSH1 0x1 PUSH1 0x0 DUP1 PUSH2 0x100 EXP DUP2 SLOAD DUP2 PUSH1 0xFF MUL NOT AND SWAP1 DUP4 PUSH1 0x3 DUP2 GT ISZERO PUSH2 0xCE JUMPI INVALID JUMPDEST MUL OR SWAP1 SSTORE POP JUMP JUMPDEST PUSH1 0x0 DUP1 SWAP1 SLOAD SWAP1 PUSH2 0x100 EXP SWAP1 DIV PUSH1 0xFF AND DUP2 JUMP JUMPDEST PUSH1 0x2 PUSH1 0x0 DUP1 PUSH2 0x100 EXP DUP2 SLOAD DUP2 PUSH1 0xFF MUL NOT AND SWAP1 DUP4 PUSH1 0x3 DUP2 GT ISZERO PUSH2 0x105 JUMPI INVALID JUMPDEST MUL OR SWAP1 SSTORE POP JUMP JUMPDEST PUSH1 0x3 PUSH1 0x0 DUP1 PUSH2 0x100 EXP DUP2 SLOAD DUP2 PUSH1 0xFF MUL NOT AND SWAP1 DUP4 PUSH1 0x3 DUP2 GT ISZERO PUSH2 0x12A JUMPI INVALID JUMPDEST MUL OR SWAP1 SSTORE POP JUMP JUMPDEST PUSH1 0x0 DUP1 PUSH1 0x0 PUSH2 0x100 EXP DUP2 SLOAD DUP2 PUSH1 0xFF MUL NOT AND SWAP1 DUP4 PUSH1 0x3 DUP2 GT ISZERO PUSH2 0x14F JUMPI INVALID JUMPDEST MUL OR SWAP1 SSTORE POP JUMP INVALID LOG2 PUSH6 0x627A7A723158 KECCAK256 0xE6 SWAP5 PUSH32 0x74E9C50C8C8CBBCB7FFFDA594CD6585D972E4B4DDA336D9DA3D6C3CC6764736F PUSH13 0x63430005110032000000000000 "
				},
				"gasEstimates": {
					"creation": {
						"codeDepositCost": "79000",
						"executionCost": "129",
						"totalCost": "79129"
					},
					"external": {
						"choice()": "1073",
						"stateCh1()": "21075",
						"stateCh2()": "21009",
						"stateCh3()": "21053",
						"stateCh4()": "21097"
					}
				},
				"methodIdentifiers": {
					"choice()": "98f42fe3",
					"stateCh1()": "cba7c7e2",
					"stateCh2()": "3ce2e762",
					"stateCh3()": "a6e0c059",
					"stateCh4()": "df054625"
				}
			},
			"storageLayout": {
				"storage": [
					{
						"astId": 8,
						"contract": "contracts/enums.sol:MyContract",
						"label": "choice",
						"offset": 0,
						"slot": "0",
						"type": "t_enum(ActionChoices)6"
					}
				],
				"types": {
					"t_enum(ActionChoices)6": {
						"encoding": "inplace",
						"label": "enum MyContract.ActionChoices",
						"numberOfBytes": "1"
					}
				}
			},
			"userdoc": {
				"methods": {}
			}
		}
	}
}